{
    "contractName": "Kargain",
    "abi": [
        {
            "anonymous": false,
            "inputs": [
                {
                    "indexed": true,
                    "internalType": "address",
                    "name": "owner",
                    "type": "address"
                },
                {
                    "indexed": true,
                    "internalType": "address",
                    "name": "approved",
                    "type": "address"
                },
                {
                    "indexed": true,
                    "internalType": "uint256",
                    "name": "tokenId",
                    "type": "uint256"
                }
            ],
            "name": "Approval",
            "type": "event"
        },
        {
            "anonymous": false,
            "inputs": [
                {
                    "indexed": true,
                    "internalType": "address",
                    "name": "owner",
                    "type": "address"
                },
                {
                    "indexed": true,
                    "internalType": "address",
                    "name": "operator",
                    "type": "address"
                },
                {
                    "indexed": false,
                    "internalType": "bool",
                    "name": "approved",
                    "type": "bool"
                }
            ],
            "name": "ApprovalForAll",
            "type": "event"
        },
        {
            "anonymous": false,
            "inputs": [
                {
                    "indexed": true,
                    "internalType": "address",
                    "name": "payer",
                    "type": "address"
                },
                {
                    "indexed": false,
                    "internalType": "uint256",
                    "name": "tokenId",
                    "type": "uint256"
                }
            ],
            "name": "OfferAccepted",
            "type": "event"
        },
        {
            "anonymous": false,
            "inputs": [
                {
                    "indexed": true,
                    "internalType": "address",
                    "name": "payer",
                    "type": "address"
                },
                {
                    "indexed": false,
                    "internalType": "uint256",
                    "name": "tokenId",
                    "type": "uint256"
                }
            ],
            "name": "OfferCancelled",
            "type": "event"
        },
        {
            "anonymous": false,
            "inputs": [
                {
                    "indexed": true,
                    "internalType": "address",
                    "name": "payer",
                    "type": "address"
                },
                {
                    "indexed": false,
                    "internalType": "uint256",
                    "name": "tokenId",
                    "type": "uint256"
                }
            ],
            "name": "OfferExpired",
            "type": "event"
        },
        {
            "anonymous": false,
            "inputs": [
                {
                    "indexed": true,
                    "internalType": "address",
                    "name": "payer",
                    "type": "address"
                },
                {
                    "indexed": false,
                    "internalType": "uint256",
                    "name": "tokenId",
                    "type": "uint256"
                },
                {
                    "indexed": false,
                    "internalType": "uint256",
                    "name": "amount",
                    "type": "uint256"
                }
            ],
            "name": "OfferReceived",
            "type": "event"
        },
        {
            "anonymous": false,
            "inputs": [
                {
                    "indexed": true,
                    "internalType": "address",
                    "name": "payer",
                    "type": "address"
                },
                {
                    "indexed": false,
                    "internalType": "uint256",
                    "name": "tokenId",
                    "type": "uint256"
                }
            ],
            "name": "OfferRejected",
            "type": "event"
        },
        {
            "anonymous": false,
            "inputs": [
                {
                    "indexed": true,
                    "internalType": "bytes32",
                    "name": "role",
                    "type": "bytes32"
                },
                {
                    "indexed": true,
                    "internalType": "bytes32",
                    "name": "previousAdminRole",
                    "type": "bytes32"
                },
                {
                    "indexed": true,
                    "internalType": "bytes32",
                    "name": "newAdminRole",
                    "type": "bytes32"
                }
            ],
            "name": "RoleAdminChanged",
            "type": "event"
        },
        {
            "anonymous": false,
            "inputs": [
                {
                    "indexed": true,
                    "internalType": "bytes32",
                    "name": "role",
                    "type": "bytes32"
                },
                {
                    "indexed": true,
                    "internalType": "address",
                    "name": "account",
                    "type": "address"
                },
                {
                    "indexed": true,
                    "internalType": "address",
                    "name": "sender",
                    "type": "address"
                }
            ],
            "name": "RoleGranted",
            "type": "event"
        },
        {
            "anonymous": false,
            "inputs": [
                {
                    "indexed": true,
                    "internalType": "bytes32",
                    "name": "role",
                    "type": "bytes32"
                },
                {
                    "indexed": true,
                    "internalType": "address",
                    "name": "account",
                    "type": "address"
                },
                {
                    "indexed": true,
                    "internalType": "address",
                    "name": "sender",
                    "type": "address"
                }
            ],
            "name": "RoleRevoked",
            "type": "event"
        },
        {
            "anonymous": false,
            "inputs": [
                {
                    "indexed": true,
                    "internalType": "address",
                    "name": "creator",
                    "type": "address"
                },
                {
                    "indexed": true,
                    "internalType": "uint256",
                    "name": "tokenId",
                    "type": "uint256"
                }
            ],
            "name": "TokenMinted",
            "type": "event"
        },
        {
            "anonymous": false,
            "inputs": [
                {
                    "indexed": true,
                    "internalType": "address",
                    "name": "from",
                    "type": "address"
                },
                {
                    "indexed": true,
                    "internalType": "address",
                    "name": "to",
                    "type": "address"
                },
                {
                    "indexed": true,
                    "internalType": "uint256",
                    "name": "tokenId",
                    "type": "uint256"
                }
            ],
            "name": "Transfer",
            "type": "event"
        },
        {
            "inputs": [],
            "name": "DEFAULT_ADMIN_ROLE",
            "outputs": [
                {
                    "internalType": "bytes32",
                    "name": "",
                    "type": "bytes32"
                }
            ],
            "stateMutability": "view",
            "type": "function"
        },
        {
            "inputs": [
                {
                    "internalType": "uint256",
                    "name": "_tokenId",
                    "type": "uint256"
                }
            ],
            "name": "acceptOffer",
            "outputs": [],
            "stateMutability": "nonpayable",
            "type": "function"
        },
        {
            "inputs": [
                {
                    "internalType": "address",
                    "name": "to",
                    "type": "address"
                },
                {
                    "internalType": "uint256",
                    "name": "tokenId",
                    "type": "uint256"
                }
            ],
            "name": "approve",
            "outputs": [],
            "stateMutability": "nonpayable",
            "type": "function"
        },
        {
            "inputs": [
                {
                    "internalType": "address",
                    "name": "owner",
                    "type": "address"
                }
            ],
            "name": "balanceOf",
            "outputs": [
                {
                    "internalType": "uint256",
                    "name": "",
                    "type": "uint256"
                }
            ],
            "stateMutability": "view",
            "type": "function"
        },
        {
            "inputs": [],
            "name": "baseURI",
            "outputs": [
                {
                    "internalType": "string",
                    "name": "",
                    "type": "string"
                }
            ],
            "stateMutability": "view",
            "type": "function"
        },
        {
            "inputs": [
                {
                    "internalType": "uint256",
                    "name": "tokenId",
                    "type": "uint256"
                }
            ],
            "name": "burn",
            "outputs": [],
            "stateMutability": "nonpayable",
            "type": "function"
        },
        {
            "inputs": [
                {
                    "internalType": "uint256",
                    "name": "_tokenId",
                    "type": "uint256"
                }
            ],
            "name": "cancelOffer",
            "outputs": [],
            "stateMutability": "nonpayable",
            "type": "function"
        },
        {
            "inputs": [
                {
                    "internalType": "uint256",
                    "name": "_tokenId",
                    "type": "uint256"
                }
            ],
            "name": "createOffer",
            "outputs": [],
            "stateMutability": "payable",
            "type": "function"
        },
        {
            "inputs": [
                {
                    "internalType": "uint256",
                    "name": "tokenId",
                    "type": "uint256"
                }
            ],
            "name": "getApproved",
            "outputs": [
                {
                    "internalType": "address",
                    "name": "",
                    "type": "address"
                }
            ],
            "stateMutability": "view",
            "type": "function"
        },
        {
            "inputs": [
                {
                    "internalType": "bytes32",
                    "name": "role",
                    "type": "bytes32"
                }
            ],
            "name": "getRoleAdmin",
            "outputs": [
                {
                    "internalType": "bytes32",
                    "name": "",
                    "type": "bytes32"
                }
            ],
            "stateMutability": "view",
            "type": "function"
        },
        {
            "inputs": [
                {
                    "internalType": "bytes32",
                    "name": "role",
                    "type": "bytes32"
                },
                {
                    "internalType": "uint256",
                    "name": "index",
                    "type": "uint256"
                }
            ],
            "name": "getRoleMember",
            "outputs": [
                {
                    "internalType": "address",
                    "name": "",
                    "type": "address"
                }
            ],
            "stateMutability": "view",
            "type": "function"
        },
        {
            "inputs": [
                {
                    "internalType": "bytes32",
                    "name": "role",
                    "type": "bytes32"
                }
            ],
            "name": "getRoleMemberCount",
            "outputs": [
                {
                    "internalType": "uint256",
                    "name": "",
                    "type": "uint256"
                }
            ],
            "stateMutability": "view",
            "type": "function"
        },
        {
            "inputs": [
                {
                    "internalType": "bytes32",
                    "name": "role",
                    "type": "bytes32"
                },
                {
                    "internalType": "address",
                    "name": "account",
                    "type": "address"
                }
            ],
            "name": "grantRole",
            "outputs": [],
            "stateMutability": "nonpayable",
            "type": "function"
        },
        {
            "inputs": [
                {
                    "internalType": "bytes32",
                    "name": "role",
                    "type": "bytes32"
                },
                {
                    "internalType": "address",
                    "name": "account",
                    "type": "address"
                }
            ],
            "name": "hasRole",
            "outputs": [
                {
                    "internalType": "bool",
                    "name": "",
                    "type": "bool"
                }
            ],
            "stateMutability": "view",
            "type": "function"
        },
        {
            "inputs": [
                {
                    "internalType": "address payable",
                    "name": "_platformAddress_",
                    "type": "address"
                },
                {
                    "internalType": "uint256",
                    "name": "_platformCommissionPercent_",
                    "type": "uint256"
                }
            ],
            "name": "initialize",
            "outputs": [],
            "stateMutability": "nonpayable",
            "type": "function"
        },
        {
            "inputs": [
                {
                    "internalType": "address",
                    "name": "owner",
                    "type": "address"
                },
                {
                    "internalType": "address",
                    "name": "operator",
                    "type": "address"
                }
            ],
            "name": "isApprovedForAll",
            "outputs": [
                {
                    "internalType": "bool",
                    "name": "",
                    "type": "bool"
                }
            ],
            "stateMutability": "view",
            "type": "function"
        },
        {
            "inputs": [
                {
                    "internalType": "uint256",
                    "name": "_tokenId",
                    "type": "uint256"
                },
                {
                    "internalType": "uint256",
                    "name": "_price",
                    "type": "uint256"
                }
            ],
            "name": "mint",
            "outputs": [],
            "stateMutability": "nonpayable",
            "type": "function"
        },
        {
            "inputs": [],
            "name": "name",
            "outputs": [
                {
                    "internalType": "string",
                    "name": "",
                    "type": "string"
                }
            ],
            "stateMutability": "view",
            "type": "function"
        },
        {
            "inputs": [
                {
                    "internalType": "uint256",
                    "name": "_tokenId",
                    "type": "uint256"
                }
            ],
            "name": "offerAddress",
            "outputs": [
                {
                    "internalType": "address payable",
                    "name": "",
                    "type": "address"
                }
            ],
            "stateMutability": "view",
            "type": "function"
        },
        {
            "inputs": [],
            "name": "offerExpirationTime",
            "outputs": [
                {
                    "internalType": "uint256",
                    "name": "",
                    "type": "uint256"
                }
            ],
            "stateMutability": "view",
            "type": "function"
        },
        {
            "inputs": [
                {
                    "internalType": "uint256",
                    "name": "tokenId",
                    "type": "uint256"
                }
            ],
            "name": "ownerOf",
            "outputs": [
                {
                    "internalType": "address",
                    "name": "",
                    "type": "address"
                }
            ],
            "stateMutability": "view",
            "type": "function"
        },
        {
            "inputs": [],
            "name": "platformAddress",
            "outputs": [
                {
                    "internalType": "address payable",
                    "name": "",
                    "type": "address"
                }
            ],
            "stateMutability": "view",
            "type": "function"
        },
        {
            "inputs": [],
            "name": "platformCommissionPercent",
            "outputs": [
                {
                    "internalType": "uint256",
                    "name": "",
                    "type": "uint256"
                }
            ],
            "stateMutability": "view",
            "type": "function"
        },
        {
            "inputs": [
                {
                    "internalType": "uint256",
                    "name": "_tokenId",
                    "type": "uint256"
                }
            ],
            "name": "rejectOffer",
            "outputs": [],
            "stateMutability": "nonpayable",
            "type": "function"
        },
        {
            "inputs": [
                {
                    "internalType": "bytes32",
                    "name": "role",
                    "type": "bytes32"
                },
                {
                    "internalType": "address",
                    "name": "account",
                    "type": "address"
                }
            ],
            "name": "renounceRole",
            "outputs": [],
            "stateMutability": "nonpayable",
            "type": "function"
        },
        {
            "inputs": [
                {
                    "internalType": "bytes32",
                    "name": "role",
                    "type": "bytes32"
                },
                {
                    "internalType": "address",
                    "name": "account",
                    "type": "address"
                }
            ],
            "name": "revokeRole",
            "outputs": [],
            "stateMutability": "nonpayable",
            "type": "function"
        },
        {
            "inputs": [
                {
                    "internalType": "address",
                    "name": "from",
                    "type": "address"
                },
                {
                    "internalType": "address",
                    "name": "to",
                    "type": "address"
                },
                {
                    "internalType": "uint256",
                    "name": "tokenId",
                    "type": "uint256"
                }
            ],
            "name": "safeTransferFrom",
            "outputs": [],
            "stateMutability": "nonpayable",
            "type": "function"
        },
        {
            "inputs": [
                {
                    "internalType": "address",
                    "name": "from",
                    "type": "address"
                },
                {
                    "internalType": "address",
                    "name": "to",
                    "type": "address"
                },
                {
                    "internalType": "uint256",
                    "name": "tokenId",
                    "type": "uint256"
                },
                {
                    "internalType": "bytes",
                    "name": "_data",
                    "type": "bytes"
                }
            ],
            "name": "safeTransferFrom",
            "outputs": [],
            "stateMutability": "nonpayable",
            "type": "function"
        },
        {
            "inputs": [
                {
                    "internalType": "address",
                    "name": "operator",
                    "type": "address"
                },
                {
                    "internalType": "bool",
                    "name": "approved",
                    "type": "bool"
                }
            ],
            "name": "setApprovalForAll",
            "outputs": [],
            "stateMutability": "nonpayable",
            "type": "function"
        },
        {
            "inputs": [
                {
                    "internalType": "uint256",
                    "name": "offerExpirationTime_",
                    "type": "uint256"
                }
            ],
            "name": "setOfferExpirationTime",
            "outputs": [],
            "stateMutability": "nonpayable",
            "type": "function"
        },
        {
            "inputs": [
                {
                    "internalType": "address payable",
                    "name": "platformAddress_",
                    "type": "address"
                }
            ],
            "name": "setPlatformAddress",
            "outputs": [],
            "stateMutability": "nonpayable",
            "type": "function"
        },
        {
            "inputs": [
                {
                    "internalType": "uint256",
                    "name": "platformCommissionPercent_",
                    "type": "uint256"
                }
            ],
            "name": "setPlatformCommissionPercent",
            "outputs": [],
            "stateMutability": "nonpayable",
            "type": "function"
        },
        {
            "inputs": [
                {
                    "internalType": "uint256",
                    "name": "_tokenId",
                    "type": "uint256"
                },
                {
                    "internalType": "uint256",
                    "name": "_price",
                    "type": "uint256"
                }
            ],
            "name": "setTokenPrice",
            "outputs": [],
            "stateMutability": "nonpayable",
            "type": "function"
        },
        {
            "inputs": [
                {
                    "internalType": "bytes4",
                    "name": "interfaceId",
                    "type": "bytes4"
                }
            ],
            "name": "supportsInterface",
            "outputs": [
                {
                    "internalType": "bool",
                    "name": "",
                    "type": "bool"
                }
            ],
            "stateMutability": "view",
            "type": "function"
        },
        {
            "inputs": [],
            "name": "symbol",
            "outputs": [
                {
                    "internalType": "string",
                    "name": "",
                    "type": "string"
                }
            ],
            "stateMutability": "view",
            "type": "function"
        },
        {
            "inputs": [
                {
                    "internalType": "uint256",
                    "name": "index",
                    "type": "uint256"
                }
            ],
            "name": "tokenByIndex",
            "outputs": [
                {
                    "internalType": "uint256",
                    "name": "",
                    "type": "uint256"
                }
            ],
            "stateMutability": "view",
            "type": "function"
        },
        {
            "inputs": [
                {
                    "internalType": "address",
                    "name": "owner",
                    "type": "address"
                },
                {
                    "internalType": "uint256",
                    "name": "index",
                    "type": "uint256"
                }
            ],
            "name": "tokenOfOwnerByIndex",
            "outputs": [
                {
                    "internalType": "uint256",
                    "name": "",
                    "type": "uint256"
                }
            ],
            "stateMutability": "view",
            "type": "function"
        },
        {
            "inputs": [
                {
                    "internalType": "uint256",
                    "name": "_tokenId",
                    "type": "uint256"
                }
            ],
            "name": "tokenPrice",
            "outputs": [
                {
                    "internalType": "uint256",
                    "name": "",
                    "type": "uint256"
                }
            ],
            "stateMutability": "view",
            "type": "function"
        },
        {
            "inputs": [
                {
                    "internalType": "uint256",
                    "name": "tokenId",
                    "type": "uint256"
                }
            ],
            "name": "tokenURI",
            "outputs": [
                {
                    "internalType": "string",
                    "name": "",
                    "type": "string"
                }
            ],
            "stateMutability": "view",
            "type": "function"
        },
        {
            "inputs": [],
            "name": "totalSupply",
            "outputs": [
                {
                    "internalType": "uint256",
                    "name": "",
                    "type": "uint256"
                }
            ],
            "stateMutability": "view",
            "type": "function"
        },
        {
            "inputs": [
                {
                    "internalType": "address",
                    "name": "from",
                    "type": "address"
                },
                {
                    "internalType": "address",
                    "name": "to",
                    "type": "address"
                },
                {
                    "internalType": "uint256",
                    "name": "tokenId",
                    "type": "uint256"
                }
            ],
            "name": "transferFrom",
            "outputs": [],
            "stateMutability": "nonpayable",
            "type": "function"
        }
    ],
    "bytecode": "60806040526201518060fd5534801561001757600080fd5b50613cc0806100276000396000f3fe6080604052600436106102465760003560e01c80639010d07c11610139578063c87b56dd116100b6578063d547741f1161007a578063d547741f146109a5578063dbe55e56146109de578063df1506e8146109f3578063e985e9c514610a08578063eb685c4714610a43578063ef706adf14610a7357610246565b8063c87b56dd146108bb578063ca15c873146108e5578063cc03c3421461090f578063cd6dc68714610942578063d4ddce8a1461097b57610246565b8063a269993d116100fd578063a269993d1461074d578063b88d4fde1461076a578063bf82835b1461083d578063c6ba6a1d14610867578063c815729d1461089157610246565b80639010d07c1461067f57806391d14854146106af57806395d89b41146106e8578063a217fddf146106fd578063a22cb4651461071257610246565b80632f2ff15d116101c75780634f6ccce71161018b5780634f6ccce7146105b95780636352211e146105e35780636c0360eb1461060d57806370a082311461062257806388b10c751461065557610246565b80632f2ff15d146104a15780632f745c59146104da57806336568abe1461051357806342842e0e1461054c57806342966c681461058f57610246565b80631a4ba0591161020e5780631a4ba059146103c55780631b2ef1ca146103ef57806323b872dd1461041f578063248a9ca314610462578063271e044e1461048c57610246565b806301ffc9a71461024b57806306fdde0314610293578063081812fc1461031d578063095ea7b31461036357806318160ddd1461039e575b600080fd5b34801561025757600080fd5b5061027f6004803603602081101561026e57600080fd5b50356001600160e01b031916610a9d565b604080519115158252519081900360200190f35b34801561029f57600080fd5b506102a8610ac0565b6040805160208082528351818301528351919283929083019185019080838360005b838110156102e25781810151838201526020016102ca565b50505050905090810190601f16801561030f5780820380516001836020036101000a031916815260200191505b509250505060405180910390f35b34801561032957600080fd5b506103476004803603602081101561034057600080fd5b5035610b57565b604080516001600160a01b039092168252519081900360200190f35b34801561036f57600080fd5b5061039c6004803603604081101561038657600080fd5b506001600160a01b038135169060200135610bb9565b005b3480156103aa57600080fd5b506103b3610c94565b60408051918252519081900360200190f35b3480156103d157600080fd5b5061039c600480360360208110156103e857600080fd5b5035610ca5565b3480156103fb57600080fd5b5061039c6004803603604081101561041257600080fd5b5080359060200135610d0d565b34801561042b57600080fd5b5061039c6004803603606081101561044257600080fd5b506001600160a01b03813581169160208101359091169060400135610dda565b34801561046e57600080fd5b506103b36004803603602081101561048557600080fd5b5035610e31565b34801561049857600080fd5b506103b3610e46565b3480156104ad57600080fd5b5061039c600480360360408110156104c457600080fd5b50803590602001356001600160a01b0316610e4c565b3480156104e657600080fd5b506103b3600480360360408110156104fd57600080fd5b506001600160a01b038135169060200135610eb3565b34801561051f57600080fd5b5061039c6004803603604081101561053657600080fd5b50803590602001356001600160a01b0316610ee4565b34801561055857600080fd5b5061039c6004803603606081101561056f57600080fd5b506001600160a01b03813581169160208101359091169060400135610f45565b34801561059b57600080fd5b5061039c600480360360208110156105b257600080fd5b5035610f60565b3480156105c557600080fd5b506103b3600480360360208110156105dc57600080fd5b5035610fb2565b3480156105ef57600080fd5b506103476004803603602081101561060657600080fd5b5035610fce565b34801561061957600080fd5b506102a8610ffc565b34801561062e57600080fd5b506103b36004803603602081101561064557600080fd5b50356001600160a01b031661105d565b34801561066157600080fd5b5061039c6004803603602081101561067857600080fd5b50356110c5565b34801561068b57600080fd5b50610347600480360360408110156106a257600080fd5b50803590602001356111fd565b3480156106bb57600080fd5b5061027f600480360360408110156106d257600080fd5b50803590602001356001600160a01b031661121b565b3480156106f457600080fd5b506102a8611239565b34801561070957600080fd5b506103b361129a565b34801561071e57600080fd5b5061039c6004803603604081101561073557600080fd5b506001600160a01b038135169060200135151561129f565b61039c6004803603602081101561076357600080fd5b50356113a4565b34801561077657600080fd5b5061039c6004803603608081101561078d57600080fd5b6001600160a01b038235811692602081013590911691604082013591908101906080810160608201356401000000008111156107c857600080fd5b8201836020820111156107da57600080fd5b803590602001918460018302840111640100000000831117156107fc57600080fd5b91908080601f016020809104026020016040519081016040528093929190818152602001838380828437600092019190915250929550611563945050505050565b34801561084957600080fd5b5061039c6004803603602081101561086057600080fd5b50356115c1565b34801561087357600080fd5b506103476004803603602081101561088a57600080fd5b5035611624565b34801561089d57600080fd5b5061039c600480360360208110156108b457600080fd5b5035611688565b3480156108c757600080fd5b506102a8600480360360208110156108de57600080fd5b50356118d9565b3480156108f157600080fd5b506103b36004803603602081101561090857600080fd5b5035611b5c565b34801561091b57600080fd5b5061039c6004803603602081101561093257600080fd5b50356001600160a01b0316611b73565b34801561094e57600080fd5b5061039c6004803603604081101561096557600080fd5b506001600160a01b038135169060200135611bf3565b34801561098757600080fd5b506103b36004803603602081101561099e57600080fd5b5035611d15565b3480156109b157600080fd5b5061039c600480360360408110156109c857600080fd5b50803590602001356001600160a01b0316611d70565b3480156109ea57600080fd5b50610347611dc9565b3480156109ff57600080fd5b506103b3611dd8565b348015610a1457600080fd5b5061027f60048036036040811015610a2b57600080fd5b506001600160a01b0381358116916020013516611dde565b348015610a4f57600080fd5b5061039c60048036036040811015610a6657600080fd5b5080359060200135611e0c565b348015610a7f57600080fd5b5061039c60048036036020811015610a9657600080fd5b5035611e6f565b6001600160e01b0319811660009081526033602052604090205460ff165b919050565b606a8054604080516020601f6002600019610100600188161502019095169490940493840181900481028201810190925282815260609390929091830182828015610b4c5780601f10610b2157610100808354040283529160200191610b4c565b820191906000526020600020905b815481529060010190602001808311610b2f57829003601f168201915b505050505090505b90565b6000610b6282611fbc565b610b9d5760405162461bcd60e51b815260040180806020018281038252602c815260200180613ad6602c913960400191505060405180910390fd5b506000908152606860205260409020546001600160a01b031690565b6000610bc482610fce565b9050806001600160a01b0316836001600160a01b03161415610c175760405162461bcd60e51b8152600401808060200182810382526021815260200180613b7f6021913960400191505060405180910390fd5b806001600160a01b0316610c29611fcf565b6001600160a01b03161480610c4a5750610c4a81610c45611fcf565b611dde565b610c855760405162461bcd60e51b81526004018080602001828103825260388152602001806139516038913960400191505060405180910390fd5b610c8f8383611fd3565b505050565b6000610ca06066612041565b905090565b610cb76000610cb2611fcf565b61121b565b610d08576040805162461bcd60e51b815260206004820152601e60248201527f4b61726761696e3a2043616c6c6572206973206e6f7420612061646d696e0000604482015290519081900360640190fd5b60fd55565b610d1682611fbc565b15610d525760405162461bcd60e51b815260040180806020018281038252602a815260200180613c32602a913960400191505060405180910390fd5b60008111610d915760405162461bcd60e51b815260040180806020018281038252602a815260200180613927602a913960400191505060405180910390fd5b610d9b338361204c565b600082815260fe602052604080822083905551839133917fb9144c96c86541f6fa89c9f2f02495cccf4b08cd6643e26d34ee00aa586558a89190a35050565b610deb610de5611fcf565b82612186565b610e265760405162461bcd60e51b8152600401808060200182810382526031815260200180613ba06031913960400191505060405180910390fd5b610c8f83838361222a565b600090815260c9602052604090206002015490565b60fd5490565b600082815260c96020526040902060020154610e6a90610cb2611fcf565b610ea55760405162461bcd60e51b815260040180806020018281038252602f8152602001806137f9602f913960400191505060405180910390fd5b610eaf8282612388565b5050565b6001600160a01b0382166000908152606560205260408120610edb908363ffffffff6123f716565b90505b92915050565b610eec611fcf565b6001600160a01b0316816001600160a01b031614610f3b5760405162461bcd60e51b815260040180806020018281038252602f815260200180613c5c602f913960400191505060405180910390fd5b610eaf8282612403565b610c8f83838360405180602001604052806000815250611563565b610f6b610de5611fcf565b610fa65760405162461bcd60e51b8152600401808060200182810382526030815260200180613c026030913960400191505060405180910390fd5b610faf81612472565b50565b600080610fc660668463ffffffff61254b16565b509392505050565b6000610ede826040518060600160405280602981526020016139b3602991396066919063ffffffff61256716565b606d8054604080516020601f6002600019610100600188161502019095169490940493840181900481028201810190925282815260609390929091830182828015610b4c5780601f10610b2157610100808354040283529160200191610b4c565b60006001600160a01b0382166110a45760405162461bcd60e51b815260040180806020018281038252602a815260200180613989602a913960400191505060405180910390fd5b6001600160a01b0382166000908152606560205260409020610ede90612041565b806110cf81611fbc565b61110a5760405162461bcd60e51b815260040180806020018281038252602a815260200180613a3c602a913960400191505060405180910390fd5b813361111582610fce565b6001600160a01b03161461115a5760405162461bcd60e51b815260040180806020018281038252602d815260200180613aa9602d913960400191505060405180910390fd5b600083815260ff602052604090205483906001600160a01b03166111af5760405162461bcd60e51b8152600401808060200182810382526031815260200180613bd16031913960400191505060405180910390fd5b6111b88461257e565b6111c1846126bd565b60408051858152905133917f1f592dbf03205ee7f7c0b32b5b071beaf79c4e0b84a954d5160dccaa79c79584919081900360200190a250505050565b600082815260c960205260408120610edb908363ffffffff6123f716565b600082815260c960205260408120610edb908363ffffffff6127d416565b606b8054604080516020601f6002600019610100600188161502019095169490940493840181900481028201810190925282815260609390929091830182828015610b4c5780601f10610b2157610100808354040283529160200191610b4c565b600081565b6112a7611fcf565b6001600160a01b0316826001600160a01b0316141561130d576040805162461bcd60e51b815260206004820152601960248201527f4552433732313a20617070726f766520746f2063616c6c657200000000000000604482015290519081900360640190fd5b806069600061131a611fcf565b6001600160a01b03908116825260208083019390935260409182016000908120918716808252919093529120805460ff19169215159290921790915561135e611fcf565b60408051841515815290516001600160a01b0392909216917f17307eab39ab6107e8899845ad3d59bd9653f200f220920489ca2b5937696c319181900360200190a35050565b806113ae81611fbc565b6113e95760405162461bcd60e51b815260040180806020018281038252602a815260200180613a3c602a913960400191505060405180910390fd5b336113f383610fce565b6001600160a01b031614156114395760405162461bcd60e51b81526004018080602001828103825260278152602001806138286027913960400191505060405180910390fd5b600082815260ff60205260409020546001600160a01b0316156114a3576040805162461bcd60e51b815260206004820152601d60248201527f4b61726761696e3a20416e206f666665722069732070656e64696e672e000000604482015290519081900360640190fd5b600082815260fe602052604090205434146114ef5760405162461bcd60e51b8152600401808060200182810382526025815260200180613b026025913960400191505060405180910390fd5b600082815260ff6020908152604080832080546001600160a01b0319163390811790915560fd54610100845293829020429094019093558051858152349281019290925280517f2c7945bf3248598029aaee74e7a7c694cceba99c30ab722154f6e8315addb7699281900390910190a25050565b61157461156e611fcf565b83612186565b6115af5760405162461bcd60e51b8152600401808060200182810382526031815260200180613ba06031913960400191505060405180910390fd5b6115bb848484846127e9565b50505050565b6115ce6000610cb2611fcf565b61161f576040805162461bcd60e51b815260206004820152601e60248201527f4b61726761696e3a2043616c6c6572206973206e6f7420612061646d696e0000604482015290519081900360640190fd5b60fc55565b60008161163081611fbc565b61166b5760405162461bcd60e51b815260040180806020018281038252602a815260200180613a3c602a913960400191505060405180910390fd5b5050600090815260ff60205260409020546001600160a01b031690565b8061169281611fbc565b6116cd5760405162461bcd60e51b815260040180806020018281038252602a815260200180613a3c602a913960400191505060405180910390fd5b600082815260ff602052604090205482906001600160a01b03166117225760405162461bcd60e51b8152600401808060200182810382526031815260200180613bd16031913960400191505060405180910390fd5b823361172d82610fce565b6001600160a01b0316146117725760405162461bcd60e51b815260040180806020018281038252602d815260200180613aa9602d913960400191505060405180910390fd5b600084815261010060205260409020544211156117cd57611792846126bd565b60408051858152905133917f517d0330169de1af1cb63d88530c8908884d15617822170b876786e48f92917f919081900360200190a26115bb565b600084815260ff60205260409020546117f19033906001600160a01b031686610f45565b600084815260fe60205260408120546118099061283b565b60fb546040519192506001600160a01b03169082156108fc029083906000818181858888f19350505050158015611844573d6000803e3d6000fd5b50600085815260fe602052604090205433906108fc9061186a908463ffffffff61286616565b6040518115909202916000818181858888f19350505050158015611892573d6000803e3d6000fd5b5061189c856126bd565b60408051868152905133917f18f9d2c9031a53ca9e501ddaadc6e66758b39bbf424cf4e22c62b6003fbd240c919081900360200190a25050505050565b60606118e482611fbc565b61191f5760405162461bcd60e51b815260040180806020018281038252602f815260200180613b50602f913960400191505060405180910390fd5b6000828152606c602090815260409182902080548351601f60026000196101006001861615020190931692909204918201849004840281018401909452808452606093928301828280156119b45780601f10611989576101008083540402835291602001916119b4565b820191906000526020600020905b81548152906001019060200180831161199757829003601f168201915b5050505050905060606119c5610ffc565b90508051600014156119d957509050610abb565b815115611a9a5780826040516020018083805190602001908083835b60208310611a145780518252601f1990920191602091820191016119f5565b51815160209384036101000a600019018019909216911617905285519190930192850191508083835b60208310611a5c5780518252601f199092019160209182019101611a3d565b6001836020036101000a0380198251168184511680821785525050505050509050019250505060405160208183030381529060405292505050610abb565b80611aa4856128c3565b6040516020018083805190602001908083835b60208310611ad65780518252601f199092019160209182019101611ab7565b51815160209384036101000a600019018019909216911617905285519190930192850191508083835b60208310611b1e5780518252601f199092019160209182019101611aff565b6001836020036101000a0380198251168184511680821785525050505050509050019250505060405160208183030381529060405292505050919050565b600081815260c960205260408120610ede90612041565b611b806000610cb2611fcf565b611bd1576040805162461bcd60e51b815260206004820152601e60248201527f4b61726761696e3a2043616c6c6572206973206e6f7420612061646d696e0000604482015290519081900360640190fd5b60fb80546001600160a01b0319166001600160a01b0392909216919091179055565b600054610100900460ff1680611c0c5750611c0c612987565b80611c1a575060005460ff16155b611c555760405162461bcd60e51b815260040180806020018281038252602e815260200180613a0e602e913960400191505060405180910390fd5b600054610100900460ff16158015611c80576000805460ff1961ff0019909116610100171660011790555b60fb80546001600160a01b0319166001600160a01b03851617905560fc829055611ca8612998565b611cec6040518060400160405280600781526020016625b0b933b0b4b760c91b8152506040518060400160405280600381526020016225a3a760e91b815250612a51565b611cf4612af8565b611cff600033610ea5565b8015610c8f576000805461ff0019169055505050565b600081611d2181611fbc565b611d5c5760405162461bcd60e51b815260040180806020018281038252602a815260200180613a3c602a913960400191505060405180910390fd5b5050600090815260fe602052604090205490565b600082815260c96020526040902060020154611d8e90610cb2611fcf565b610f3b5760405162461bcd60e51b81526004018080602001828103825260308152602001806138f76030913960400191505060405180910390fd5b60fb546001600160a01b031690565b60fc5490565b6001600160a01b03918216600090815260696020908152604080832093909416825291909152205460ff1690565b8133611e1782610fce565b6001600160a01b031614611e5c5760405162461bcd60e51b815260040180806020018281038252602d815260200180613aa9602d913960400191505060405180910390fd5b50600091825260fe602052604090912055565b80611e7981611fbc565b611eb45760405162461bcd60e51b815260040180806020018281038252602a815260200180613a3c602a913960400191505060405180910390fd5b600082815260ff602052604090205482906001600160a01b0316611f095760405162461bcd60e51b8152600401808060200182810382526031815260200180613bd16031913960400191505060405180910390fd5b600083815260ff60205260409020546001600160a01b0316331480611f345750611f3460003361121b565b611f6f5760405162461bcd60e51b81526004018080602001828103825260328152602001806139dc6032913960400191505060405180910390fd5b611f788361257e565b611f81836126bd565b60408051848152905133917f899cab278284ae4a91172caa0943607a0bcb19766254c3ebe1139be00650b102919081900360200190a2505050565b6000610ede60668363ffffffff612b8d16565b3390565b600081815260686020526040902080546001600160a01b0319166001600160a01b038416908117909155819061200882610fce565b6001600160a01b03167f8c5be1e5ebec7d5bd14f71427d1e84f3dd0314c0f7b2291e5b200ac8c7c3b92560405160405180910390a45050565b6000610ede82612b99565b6001600160a01b0382166120a7576040805162461bcd60e51b815260206004820181905260248201527f4552433732313a206d696e7420746f20746865207a65726f2061646472657373604482015290519081900360640190fd5b6120b081611fbc565b15612102576040805162461bcd60e51b815260206004820152601c60248201527f4552433732313a20746f6b656e20616c7265616479206d696e74656400000000604482015290519081900360640190fd5b61210e60008383610c8f565b6001600160a01b0382166000908152606560205260409020612136908263ffffffff612b9d16565b506121496066828463ffffffff612ba916565b5060405181906001600160a01b038416906000907fddf252ad1be2c89b69c2b068fc378daa952ba7f163c4a11628f55a4df523b3ef908290a45050565b600061219182611fbc565b6121cc5760405162461bcd60e51b815260040180806020018281038252602c8152602001806138cb602c913960400191505060405180910390fd5b60006121d783610fce565b9050806001600160a01b0316846001600160a01b031614806122125750836001600160a01b031661220784610b57565b6001600160a01b0316145b8061222257506122228185611dde565b949350505050565b826001600160a01b031661223d82610fce565b6001600160a01b0316146122825760405162461bcd60e51b8152600401808060200182810382526029815260200180613b276029913960400191505060405180910390fd5b6001600160a01b0382166122c75760405162461bcd60e51b81526004018080602001828103825260248152602001806138816024913960400191505060405180910390fd5b6122d2838383610c8f565b6122dd600082611fd3565b6001600160a01b0383166000908152606560205260409020612305908263ffffffff612bbf16565b506001600160a01b038216600090815260656020526040902061232e908263ffffffff612b9d16565b506123416066828463ffffffff612ba916565b5080826001600160a01b0316846001600160a01b03167fddf252ad1be2c89b69c2b068fc378daa952ba7f163c4a11628f55a4df523b3ef60405160405180910390a4505050565b600082815260c9602052604090206123a6908263ffffffff612bcb16565b15610eaf576123b3611fcf565b6001600160a01b0316816001600160a01b0316837f2f8788117e7eff1d82e926ec794901d17c78024a50270940304540a733656f0d60405160405180910390a45050565b6000610edb8383612be0565b600082815260c960205260409020612421908263ffffffff612c4416565b15610eaf5761242e611fcf565b6001600160a01b0316816001600160a01b0316837ff6391f5c32d9c69d2a47ea670b442974b53935d1edc7fd64eb21e047a839171b60405160405180910390a45050565b600061247d82610fce565b905061248b81600084610c8f565b612496600083611fd3565b6000828152606c602052604090205460026000196101006001841615020190911604156124d4576000828152606c602052604081206124d4916136fa565b6001600160a01b03811660009081526065602052604090206124fc908363ffffffff612bbf16565b5061250e60668363ffffffff612c5916565b5060405182906000906001600160a01b038416907fddf252ad1be2c89b69c2b068fc378daa952ba7f163c4a11628f55a4df523b3ef908390a45050565b600080808061255a8686612c65565b9097909650945050505050565b6000612574848484612ce0565b90505b9392505050565b8061258881611fbc565b6125c35760405162461bcd60e51b815260040180806020018281038252602a815260200180613a3c602a913960400191505060405180910390fd5b81336125ce82610fce565b6001600160a01b0316146126135760405162461bcd60e51b815260040180806020018281038252602d815260200180613aa9602d913960400191505060405180910390fd5b600083815260ff602052604090205483906001600160a01b03166126685760405162461bcd60e51b8152600401808060200182810382526031815260200180613bd16031913960400191505060405180910390fd5b600084815260ff602090815260408083205460fe9092528083205490516001600160a01b039092169281156108fc029290818181858888f193505050501580156126b6573d6000803e3d6000fd5b5050505050565b806126c781611fbc565b6127025760405162461bcd60e51b815260040180806020018281038252602a815260200180613a3c602a913960400191505060405180910390fd5b813361270d82610fce565b6001600160a01b0316146127525760405162461bcd60e51b815260040180806020018281038252602d815260200180613aa9602d913960400191505060405180910390fd5b600083815260ff602052604090205483906001600160a01b03166127a75760405162461bcd60e51b8152600401808060200182810382526031815260200180613bd16031913960400191505060405180910390fd5b505050600090815260ff6020908152604080832080546001600160a01b0319169055610100909152812055565b6000610edb836001600160a01b038416612daa565b6127f484848461222a565b61280084848484612dc2565b6115bb5760405162461bcd60e51b815260040180806020018281038252603281526020018061384f6032913960400191505060405180910390fd5b6000610ede6004600a0a61285a60fc5485612f4290919063ffffffff16565b9063ffffffff612f9b16565b6000828211156128bd576040805162461bcd60e51b815260206004820152601e60248201527f536166654d6174683a207375627472616374696f6e206f766572666c6f770000604482015290519081900360640190fd5b50900390565b6060816128e857506040805180820190915260018152600360fc1b6020820152610abb565b8160005b811561290057600101600a820491506128ec565b6060816040519080825280601f01601f19166020018201604052801561292d576020820181803883390190505b50859350905060001982015b831561297e57600a840660300160f81b8282806001900393508151811061295c57fe5b60200101906001600160f81b031916908160001a905350600a84049350612939565b50949350505050565b600061299230613002565b15905090565b600054610100900460ff16806129b157506129b1612987565b806129bf575060005460ff16155b6129fa5760405162461bcd60e51b815260040180806020018281038252602e815260200180613a0e602e913960400191505060405180910390fd5b600054610100900460ff16158015612a25576000805460ff1961ff0019909116610100171660011790555b612a2d613008565b612a356130a8565b612a3d613008565b8015610faf576000805461ff001916905550565b600054610100900460ff1680612a6a5750612a6a612987565b80612a78575060005460ff16155b612ab35760405162461bcd60e51b815260040180806020018281038252602e815260200180613a0e602e913960400191505060405180910390fd5b600054610100900460ff16158015612ade576000805460ff1961ff0019909116610100171660011790555b612ae6613008565b612aee6130a8565b611cff8383613145565b600054610100900460ff1680612b115750612b11612987565b80612b1f575060005460ff16155b612b5a5760405162461bcd60e51b815260040180806020018281038252602e815260200180613a0e602e913960400191505060405180910390fd5b600054610100900460ff16158015612b85576000805460ff1961ff0019909116610100171660011790555b612a35613008565b6000610edb8383612daa565b5490565b6000610edb838361322a565b600061257484846001600160a01b038516613274565b6000610edb838361330b565b6000610edb836001600160a01b03841661322a565b81546000908210612c225760405162461bcd60e51b81526004018080602001828103825260228152602001806137d76022913960400191505060405180910390fd5b826000018281548110612c3157fe5b9060005260206000200154905092915050565b6000610edb836001600160a01b03841661330b565b6000610edb83836133d1565b815460009081908310612ca95760405162461bcd60e51b8152600401808060200182810382526022815260200180613a666022913960400191505060405180910390fd5b6000846000018481548110612cba57fe5b906000526020600020906002020190508060000154816001015492509250509250929050565b60008281526001840160205260408120548281612d7b5760405162461bcd60e51b81526004018080602001828103825283818151815260200191508051906020019080838360005b83811015612d40578181015183820152602001612d28565b50505050905090810190601f168015612d6d5780820380516001836020036101000a031916815260200191505b509250505060405180910390fd5b50846000016001820381548110612d8e57fe5b9060005260206000209060020201600101549150509392505050565b60009081526001919091016020526040902054151590565b6000612dd6846001600160a01b0316613002565b612de257506001612222565b6060612f08630a85bd0160e11b612df7611fcf565b88878760405160240180856001600160a01b03166001600160a01b03168152602001846001600160a01b03166001600160a01b0316815260200183815260200180602001828103825283818151815260200191508051906020019080838360005b83811015612e70578181015183820152602001612e58565b50505050905090810190601f168015612e9d5780820380516001836020036101000a031916815260200191505b5095505050505050604051602081830303815290604052906001600160e01b0319166020820180516001600160e01b03838183161783525050505060405180606001604052806032815260200161384f603291396001600160a01b038816919063ffffffff6134a516565b90506000818060200190516020811015612f2157600080fd5b50516001600160e01b031916630a85bd0160e11b1492505050949350505050565b600082612f5157506000610ede565b82820282848281612f5e57fe5b0414610edb5760405162461bcd60e51b8152600401808060200182810382526021815260200180613a886021913960400191505060405180910390fd5b6000808211612ff1576040805162461bcd60e51b815260206004820152601a60248201527f536166654d6174683a206469766973696f6e206279207a65726f000000000000604482015290519081900360640190fd5b818381612ffa57fe5b049392505050565b3b151590565b600054610100900460ff16806130215750613021612987565b8061302f575060005460ff16155b61306a5760405162461bcd60e51b815260040180806020018281038252602e815260200180613a0e602e913960400191505060405180910390fd5b600054610100900460ff16158015612a3d576000805460ff1961ff0019909116610100171660011790558015610faf576000805461ff001916905550565b600054610100900460ff16806130c157506130c1612987565b806130cf575060005460ff16155b61310a5760405162461bcd60e51b815260040180806020018281038252602e815260200180613a0e602e913960400191505060405180910390fd5b600054610100900460ff16158015613135576000805460ff1961ff0019909116610100171660011790555b612a3d6301ffc9a760e01b6134b4565b600054610100900460ff168061315e575061315e612987565b8061316c575060005460ff16155b6131a75760405162461bcd60e51b815260040180806020018281038252602e815260200180613a0e602e913960400191505060405180910390fd5b600054610100900460ff161580156131d2576000805460ff1961ff0019909116610100171660011790555b82516131e590606a90602086019061373e565b5081516131f990606b90602085019061373e565b5061320a6380ac58cd60e01b6134b4565b61321a635b5e139f60e01b6134b4565b611cff63780e9d6360e01b6134b4565b60006132368383612daa565b61326c57508154600181810184556000848152602080822090930184905584548482528286019093526040902091909155610ede565b506000610ede565b6000828152600184016020526040812054806132d9575050604080518082018252838152602080820184815286546001818101895560008981528481209551600290930290950191825591519082015586548684528188019092529290912055612577565b828560000160018303815481106132ec57fe5b9060005260206000209060020201600101819055506000915050612577565b600081815260018301602052604081205480156133c7578354600019808301919081019060009087908390811061333e57fe5b906000526020600020015490508087600001848154811061335b57fe5b60009182526020808320909101929092558281526001898101909252604090209084019055865487908061338b57fe5b60019003818190600052602060002001600090559055866001016000878152602001908152602001600020600090556001945050505050610ede565b6000915050610ede565b600081815260018301602052604081205480156133c7578354600019808301919081019060009087908390811061340457fe5b906000526020600020906002020190508087600001848154811061342457fe5b60009182526020808320845460029093020191825560019384015491840191909155835482528983019052604090209084019055865487908061346357fe5b6000828152602080822060026000199094019384020182815560019081018390559290935588815289820190925260408220919091559450610ede9350505050565b60606125748484600085613538565b6001600160e01b03198082161415613513576040805162461bcd60e51b815260206004820152601c60248201527f4552433136353a20696e76616c696420696e7465726661636520696400000000604482015290519081900360640190fd5b6001600160e01b0319166000908152603360205260409020805460ff19166001179055565b6060824710156135795760405162461bcd60e51b81526004018080602001828103825260268152602001806138a56026913960400191505060405180910390fd5b61358285613002565b6135d3576040805162461bcd60e51b815260206004820152601d60248201527f416464726573733a2063616c6c20746f206e6f6e2d636f6e7472616374000000604482015290519081900360640190fd5b60006060866001600160a01b031685876040518082805190602001908083835b602083106136125780518252601f1990920191602091820191016135f3565b6001836020036101000a03801982511681845116808217855250505050505090500191505060006040518083038185875af1925050503d8060008114613674576040519150601f19603f3d011682016040523d82523d6000602084013e613679565b606091505b5091509150613689828286613694565b979650505050505050565b606083156136a3575081612577565b8251156136b35782518084602001fd5b60405162461bcd60e51b8152602060048201818152845160248401528451859391928392604401919085019080838360008315612d40578181015183820152602001612d28565b50805460018160011615610100020316600290046000825580601f106137205750610faf565b601f016020900490600052602060002090810190610faf91906137bc565b828054600181600116156101000203166002900490600052602060002090601f016020900481019282601f1061377f57805160ff19168380011785556137ac565b828001600101855582156137ac579182015b828111156137ac578251825591602001919060010190613791565b506137b89291506137bc565b5090565b610b5491905b808211156137b857600081556001016137c256fe456e756d657261626c655365743a20696e646578206f7574206f6620626f756e6473416363657373436f6e74726f6c3a2073656e646572206d75737420626520616e2061646d696e20746f206772616e744b61726761696e3a20596f752063616e6e6f742062757920796f7572206f776e20746f6b656e2e4552433732313a207472616e7366657220746f206e6f6e20455243373231526563656976657220696d706c656d656e7465724552433732313a207472616e7366657220746f20746865207a65726f2061646472657373416464726573733a20696e73756666696369656e742062616c616e636520666f722063616c6c4552433732313a206f70657261746f7220717565727920666f72206e6f6e6578697374656e7420746f6b656e416363657373436f6e74726f6c3a2073656e646572206d75737420626520616e2061646d696e20746f207265766f6b654b61726761696e3a20507269636573206d7573742062652067726561746572207468616e207a65726f2e4552433732313a20617070726f76652063616c6c6572206973206e6f74206f776e6572206e6f7220617070726f76656420666f7220616c6c4552433732313a2062616c616e636520717565727920666f7220746865207a65726f20616464726573734552433732313a206f776e657220717565727920666f72206e6f6e6578697374656e7420746f6b656e4b61726761696e3a20596f7520646f206e6f74206861766520616e79206f6666657220666f72207468697320746f6b656e2e496e697469616c697a61626c653a20636f6e747261637420697320616c726561647920696e697469616c697a65644b61726761696e3a20496420666f72207468697320746f6b656e20646f6573206e6f742065786973742e456e756d657261626c654d61703a20696e646578206f7574206f6620626f756e6473536166654d6174683a206d756c7469706c69636174696f6e206f766572666c6f774b61726761696e3a20596f7520617265206e6f7420746865206f776e6572206f66207468697320746f6b656e2e4552433732313a20617070726f76656420717565727920666f72206e6f6e6578697374656e7420746f6b656e4b61726761696e3a20546865206f6666657220616d6f756e7420697320696e76616c69642e4552433732313a207472616e73666572206f6620746f6b656e2074686174206973206e6f74206f776e4552433732314d657461646174613a2055524920717565727920666f72206e6f6e6578697374656e7420746f6b656e4552433732313a20617070726f76616c20746f2063757272656e74206f776e65724552433732313a207472616e736665722063616c6c6572206973206e6f74206f776e6572206e6f7220617070726f7665644b61726761696e3a20446f6573206e6f7420657869737420616e79206f6666657220666f72207468697320746f6b656e2e4552433732314275726e61626c653a2063616c6c6572206973206e6f74206f776e6572206e6f7220617070726f7665644b61726761696e3a20496420666f72207468697320746f6b656e20616c7265616479206578697374732e416363657373436f6e74726f6c3a2063616e206f6e6c792072656e6f756e636520726f6c657320666f722073656c66a2646970667358221220f86dec8a66920aec51e4bf49d50d2d14d677da508c145f10f7737943ab7d176b64736f6c63430006020033",
    "sourcePath": "/home/damian/Documents/work/kargain-nft/contracts/Kargain.sol",
    "compiler": {
        "name": "solc",
        "version": "0.6.2+commit.bacdbe57"
    },
    "functionHashes": {
        "DEFAULT_ADMIN_ROLE()": "a217fddf",
        "acceptOffer(uint256)": "c815729d",
        "approve(address,uint256)": "095ea7b3",
        "balanceOf(address)": "70a08231",
        "baseURI()": "6c0360eb",
        "burn(uint256)": "42966c68",
        "cancelOffer(uint256)": "ef706adf",
        "createOffer(uint256)": "a269993d",
        "getApproved(uint256)": "081812fc",
        "getRoleAdmin(bytes32)": "248a9ca3",
        "getRoleMember(bytes32,uint256)": "9010d07c",
        "getRoleMemberCount(bytes32)": "ca15c873",
        "grantRole(bytes32,address)": "2f2ff15d",
        "hasRole(bytes32,address)": "91d14854",
        "initialize(address,uint256)": "cd6dc687",
        "isApprovedForAll(address,address)": "e985e9c5",
        "mint(uint256,uint256)": "1b2ef1ca",
        "name()": "06fdde03",
        "offerAddress(uint256)": "c6ba6a1d",
        "offerExpirationTime()": "271e044e",
        "ownerOf(uint256)": "6352211e",
        "platformAddress()": "dbe55e56",
        "platformCommissionPercent()": "df1506e8",
        "rejectOffer(uint256)": "88b10c75",
        "renounceRole(bytes32,address)": "36568abe",
        "revokeRole(bytes32,address)": "d547741f",
        "safeTransferFrom(address,address,uint256)": "42842e0e",
        "safeTransferFrom(address,address,uint256,bytes)": "b88d4fde",
        "setApprovalForAll(address,bool)": "a22cb465",
        "setOfferExpirationTime(uint256)": "1a4ba059",
        "setPlatformAddress(address)": "cc03c342",
        "setPlatformCommissionPercent(uint256)": "bf82835b",
        "setTokenPrice(uint256,uint256)": "eb685c47",
        "supportsInterface(bytes4)": "01ffc9a7",
        "symbol()": "95d89b41",
        "tokenByIndex(uint256)": "4f6ccce7",
        "tokenOfOwnerByIndex(address,uint256)": "2f745c59",
        "tokenPrice(uint256)": "d4ddce8a",
        "tokenURI(uint256)": "c87b56dd",
        "totalSupply()": "18160ddd",
        "transferFrom(address,address,uint256)": "23b872dd"
    },
    "gasEstimates": {
        "creation": {
            "codeDepositCost": "3110400",
            "executionCost": "23434",
            "totalCost": "3133834"
        },
        "external": {
            "DEFAULT_ADMIN_ROLE()": "310",
            "acceptOffer(uint256)": "infinite",
            "approve(address,uint256)": "infinite",
            "balanceOf(address)": "infinite",
            "baseURI()": "infinite",
            "burn(uint256)": "infinite",
            "cancelOffer(uint256)": "infinite",
            "createOffer(uint256)": "infinite",
            "getApproved(uint256)": "infinite",
            "getRoleAdmin(bytes32)": "1224",
            "getRoleMember(bytes32,uint256)": "infinite",
            "getRoleMemberCount(bytes32)": "infinite",
            "grantRole(bytes32,address)": "infinite",
            "hasRole(bytes32,address)": "infinite",
            "initialize(address,uint256)": "infinite",
            "isApprovedForAll(address,address)": "1372",
            "mint(uint256,uint256)": "infinite",
            "name()": "infinite",
            "offerAddress(uint256)": "infinite",
            "offerExpirationTime()": "1132",
            "ownerOf(uint256)": "infinite",
            "platformAddress()": "1103",
            "platformCommissionPercent()": "1086",
            "rejectOffer(uint256)": "infinite",
            "renounceRole(bytes32,address)": "infinite",
            "revokeRole(bytes32,address)": "infinite",
            "safeTransferFrom(address,address,uint256)": "infinite",
            "safeTransferFrom(address,address,uint256,bytes)": "infinite",
            "setApprovalForAll(address,bool)": "infinite",
            "setOfferExpirationTime(uint256)": "infinite",
            "setPlatformAddress(address)": "infinite",
            "setPlatformCommissionPercent(uint256)": "infinite",
            "setTokenPrice(uint256,uint256)": "infinite",
            "supportsInterface(bytes4)": "1216",
            "symbol()": "infinite",
            "tokenByIndex(uint256)": "infinite",
            "tokenOfOwnerByIndex(address,uint256)": "infinite",
            "tokenPrice(uint256)": "infinite",
            "tokenURI(uint256)": "infinite",
            "totalSupply()": "1208",
            "transferFrom(address,address,uint256)": "infinite"
        },
        "internal": {
            "_calculateCommission(uint256)": "infinite",
            "_cancelOffer(uint256)": "infinite",
            "_refundOffer(uint256)": "infinite"
        }
    }
}